:020000040000FA
:06000000C1EF13F0120035
:06100000C1EF13F0120025
:06100800E4EF0FF01200FE
:0610180074EF10F012005D
:06102A000100E0270000B8
:08103000600000001200000046
:0810380058EC0DF0FB0EDBCFBC
:10104000F3FFDB06F35000090AE0A6EC0DF0FA0E00
:1010500011EC0EF0F3E1151CF1E1010E01D0000ED0
:1010600087EF0DF058EC0DF03B0EE12402E3E16850
:10107000E652E16E010EDB6A020EDB6AF90EDBCF8F
:10108000F6FFFA0EDBCFF7FFFB0EDBCFF8FF080011
:10109000F550DF6EDF5002E1ABEF0CF0250EDF5CA8
:1010A00002E09EEF0CF0030EDB6A040EDB6A050E15
:1010B000DB6A060EDB6A070EDB6AC0EC0CF02D0E55
:1010C000DF5C0CE02B0EDF5C09E0200EDF5C06E04D
:1010D000230EDF5C03E0300EDF5C1AE1DF50300AE4
:1010E00014E0130A0FE0030A0AE00B0A05E0060AFF
:1010F000E4E1030EDB80E1D7030EDB82DED7030ED3
:10110000DB84DBD7030EDB86D8D7030EDB88D5D78D
:101110002A0EDF5C1BE1BCEC0CF00AEC0DF010E0D9
:10112000030EDB8008680968130EDBCF0DF0140E88
:10113000DBCF0EF0FFEC12F0040E06C0DBFF03D095
:10114000130EF3EC0CF0C0EC0CF00BD0090EDB6AC4
:1011500061EC0DF003E0D5EC0DF0FAD7090EF3ECDD
:101160000CF0030EDBB0DB982E0EDF5C1BE1C0EC55
:101170000CF02A0EDF5C0BE1BCEC0CF00AEC0DF07D
:1011800003E1130E45EC0DF0C0EC0CF00BD0090E92
:10119000DB6A61EC0DF003E0D5EC0DF0FAD7090E37
:1011A00045EC0DF0680EDF5C07E1C0EC0CF0680E5A
:1011B000DF5C1DE1030E18D0740EDF5C17E07A0EC1
:1011C000DF5C14E0480EDF5C06E0540EDF5C03E0F9
:1011D0005A0EDF5C02E1020E07D06C0EDF5C03E00A
:1011E0006A0EDF5C04E1010E98EC0DF0C9DBDF5004
:1011F0006E0A01E17FD31E0A01E192D1200A01E1CA
:101200008FD13F0A01E149D11A0A01E146D10D0A05
:1012100001E143D1200A01E140D13A0A01E13DD187
:10122000200A01E13AD1260A01E135D10D0A01E196
:1012300032D11A0A01E1D9D0200A4AE0300A1FE06F
:10124000460A0EE0250A01E083D3D950F90FE96E72
:10125000FF0EDA20EA6E010EEE5E000EEE5AEE5A36
:10126000A6EC0DF0250EE66E95DB03E1151C01E101
:1012700069D3A2EC0DF001E26BD3DB2A69D3080E2F
:10128000DB6A040EDB50010806E2040EDB046AECA4
:101290000DF0DB508BDB080EDB5009E0030EDB505A
:1012A000010B05E172DB01E04DD3080EDB6A64DB64
:1012B000EFCFDFFF1AEC0EF003E1151C01E142D382
:1012C000A2EC0DF001E3DB2A60DB01E141D33AD36C
:1012D000070EDB5002080FE1E6EC0DF0030EADEC5B
:1012E0000DF00E0EEECFDBFF0F0EEECFDBFF100E7C
:1012F000EECFDBFF20D0F70EDBCF17F0F80EDBCF01
:1013000018F0020E175E000E185AF70E17C0DBFF1A
:10131000F80E18C0DBFF17C0E9FF18C0EAFF9DEC0C
:101320000DF0166A0E0E14C0DBFF0F0E15C0DBFFAA
:10133000100E16C0DBFF0E0EDBCFE6FF0F0EDBCF6D
:10134000E6FF100EDBCFE6FFDAEC12F0E552E552D5
:10135000E552130E07C0DBFF140E08C0DBFF060EBC
:10136000DB5005E0130EE1EC0DF001E26ADB05EC69
:101370000EF002E2130E37DBC8EC0DF006E0040EAF
:10138000E1EC0DF002E2050E2EDB030EDBB005D022
:10139000FCDA01E0D7D2080EDB6A090EDB6A0E0E1A
:1013A000DBCFF6FF0F0EDBCFF7FF100EDBCFF8FF22
:1013B0000800F550DF6EDF5014E00BEC0EF011E288
:1013C0001AEC0EF003E1151C01E1BCD2BBDB01E31A
:1013D000DB2A090EDB2AD9500E0FE96E000ECBDB9B
:1013E000E7D7D3DA01E1B4D2ADD2C6DA110EEECF2F
:1013F000DBFF120EEDCFDBFF110EDBCFE6FF120E8F
:10140000DBCFE6FFCCEC12F0E552E552130EF3CF42
:10141000DBFF140EF4CFDBFF060EDB5004E0130EEF
:10142000D0DB01E20EDB05EC0EF002E2130EDBDA9C
:10143000AFDB05E0040EC5DB02E2050ED4DA030ED5
:10144000DBB005D0A2DA01E07DD2080EDB6A090E1E
:10145000DB6A110EDBCFE9FF120EDBCFEAFFEFCF25
:10146000DFFFDF5014E0D7DB12E2E4DB03E1151C01
:1014700001E168D267DB01E3DB2A090EDB2A110EEA
:10148000DB2ADBCFE9FF120EE8E3DB2AE6D77DDAC1
:1014900001E15ED257D2030EDB8E070EDB0410E1B2
:1014A00095DB040E5ADB0A0EEECFDBFF0B0EEECF00
:1014B000DBFF0C0EEECFDBFF0D0EEECFDBFF6CD0B3
:1014C000070EDB5003082CE1030EDBAE0DD0B2DAC1
:1014D000020E76DAEFCF14F0156A166A176A14AEA8
:1014E00039D01568166835D0F70EDBCF15F0F80E39
:1014F000DBCF16F0020E155E000E165AF70E15C061
:10150000DBFFF80E16C0DBFF15C0E9FF16C0EAFFCF
:10151000EFCF14F00A0E14C0DBFF0B0EDB6A38D0DD
:10152000070EDB50020809E1030EDBAE04D059DBE5
:1015300016AE10D00ED055DB0DD0030EDBAE12D0A0
:1015400079DA020E3DDAF9DA166A176A15AE02D0B8
:1015500016681768E2DA0C0E16C0DBFF0D0E17C016
:10156000DBFF1AD0F70EDBCF16F0F80EDBCF17F04B
:10157000020E165E000E175AF70E16C0DBFFF80EAD
:1015800017C0DBFF16C0E9FF17C0EAFFD6DAC5DADD
:101590000C0EDB6A0D0EDB6A060EDB5005E1010E58
:1015A000F36E050EF3CFDBFF150EDB6A160EDB6A5A
:1015B000D950370F146E000EDA20156E390E14C094
:1015C000DBFF3A0E15C0DBFF380EDB6A080EDB6A64
:1015D0000A0EAEDADF50780A12E0200A10E0280A7C
:1015E0000CE0200A0AE03F0A06E00D0A02E0200AA9
:1015F00008E1020E05D0080E03D0080EDF26100EFB
:1016000097DA030EDBBE02D0DB92DB94DB50800B5B
:1016100024E08ADAD890030EEB50000A08E6000EA8
:10162000EE5C000EEE58000EEE58000EEE5815E27D
:1016300013DA0B680C680D680E6894EC12F00A0E51
:1016400002C0DBFF0B0E03C0DBFF0C0E04C0DBFF90
:101650000D0E05C0DBFF2D0E08D0030EDBA202D05D
:101660002B0E03D0DBA408D0200EF36E170EF3CFA1
:10167000DBFF150EDB2A02D0170EDB6A050EDB50EE
:1016800003E1B7D901E189D0CB0E146E270E156E98
:10169000000E166E070EDBCF17F0186A196A1A6A69
:1016A00017C00BF018C00CF019C00DF01AC00EF0E6
:1016B000D3D92CEC13F014500224F36E15500320F0
:1016C000F46E16500420F86EF4CFF7FFF3CFF6FF58
:1016D0000800090EF5CFDBFF580EDF5C0FE1610E4D
:1016E000F36E090E7BD90AE3200E146E090EDBCFD0
:1016F000E7FF1450E75E090EE7CFDBFF070EDBCFF5
:1017000014F0156A166A176A0FDA14C00BF015C0C8
:101710000CF016C00DF017C00EF0EECF06F0EECFB5
:1017200007F0EECF08F0EFCF09F02CEC13F009C072
:10173000EDFF08C0EDFF07C0EDFF06C0EFFF390E5B
:10174000DBCFE9FFDB063A0EDBCFEAFF01E2DB0687
:10175000090EDBCFEFFF150EDB2A4BD995E1030E07
:10176000DBA61DD06F0EDF5C06E1C1D918E3150EB4
:10177000DB285BDA14D0780EDF5C09E0580EDF5C02
:1017800006E0620EDF5C03E0420EDF5C08E1020E61
:10179000F36E160EF3CFDBFF02D0150EDB6A030EDD
:1017A000DB50100B0EE0040EDBCF14F0050EDB5007
:1017B000D880145406E2060EDB5003E1040EDB5021
:1017C00034DA95D90AE2050EDBCFE7FF150EDB50C0
:1017D000E75E050EE7CFDBFF02D0050EDB6A040EE5
:1017E000DBCF14F0160E45D9D880145414E2160E2F
:1017F000DBCFE6FF150EDBCFE6FF040EDBCFE6FF07
:10180000050EDB50E552E75CE552D880E754E5521F
:10181000D880E7545FD9030EDB50010B0BE1080EB3
:10182000DB5008E0B2D801E08DD0080EDB50BED806
:10183000080EDB6A170EDB5007E088D9170EF1D9C6
:1018400003E1151C01E17ED0160EDB5016E07ED9B7
:10185000300EE66E9FD802E1151C74E077D9DFCF19
:10186000E6FF52EC12F0E552E552E552F4CF15F0E6
:101870000001F31C02E1151C65E0050EDBCF14F03E
:10188000160EDB50D880145409E2050EDBCFE7FFBB
:10189000160EDB50E75E050EE7CFDBFF300EE66E7F
:1018A000050ECBD94FE1390EDB2ADBCFE9FF3A0E2B
:1018B00001E3DB2ADBCFEAFF090EEFCFDBFFDB50D2
:1018C0000EE044D9090EADD902E1151C3BE0390EFA
:1018D000DB2ADBCFE9FF3A0EEDE3DB2AEBD755D865
:1018E00031E1160EDBCFE6FF080EC3D8E552E72440
:1018F0005DD82ED0070EDB50030A1CE0010A14E06D
:10190000030A07E07BD9DBCFEEFF020EDBCFEDFF52
:101910001FD0F5D8196A17AE02D0186819682CD8EC
:10192000BCD819C0EEFF14D0EAD817BE186824D866
:10193000B4D80ED063D9DBCFEFFF0AD07BD905E155
:10194000151C03E1F368F46810D0FCD801E3DB2A2E
:1019500079D947EF08F0010EDBCF14F0020EDBCF90
:1019600015F014C0F3FF15C0F4FF3B0EE15C02E27A
:10197000E16AE552E16ECBD029D9020EADEF0DF050
:1019800061D90800F550DF6E1200200EE66E080ED9
:101990001DEF0EF052EC12F0E552E552E552F3CF96
:1019A00014F0F4CF15F00001F31C1200146E156A48
:1019B000D950010F4DD91450EE261550ED221200CA
:1019C000185E000E195AF70E18C0DBFFF80E19C08A
:1019D000DBFF18C0E9FF19C0EAFF1200DBCFF4FFFC
:1019E000F350F45C1200DB50E76E040EE7CFDBFF30
:1019F00012000A0EDBCF14F00B0EDBCF15F00C0E2D
:101A0000DBCF16F00D0EDBCF17F0145015101610AB
:101A100017101200130EEECFDBFF140EEDCFDBFF1D
:101A2000130EDBCF14F0140EDBCF15F00001800E87
:101A300015141200F70EDBCF18F0F80EDBCF19F0FB
:101A40001200050EDB50E66ED950130F01D9E55296
:101A5000E750EE6EED6A12000A0EDBCF06F00B0EB9
:101A6000DBCF07F00C0EDBCF08F00D0EDBCF09F05B
:101A70001200DBCFE6FF150EDBCFE6FF050EDB50D5
:101A8000E552E724E552E7241200DB50CED8010EE0
:101A9000F36E060EF3CFDBFF1200EE50EFCFEAFF3E
:101AA000E96E16C0EEFF17C0EEFF18C0EEFF120081
:101AB000D9CFE6FFDACFE6FFE1CFD9FFE2CFDAFFF9
:101AC0001200DFCFE6FFE66A9FEC13F0E552E55225
:101AD000F3501200E76E080EE7CFDBFF1200EECFE7
:101AE00014F0EECF15F0EFCF16F0176A1200050EC6
:101AF000DBCF14F0150EDB50D88014541200010E09
:101B0000DBCF16F0020EDBCF17F0186A1200E55299
:101B1000E5CFDAFFE7CFD9FF12000A0E14C0DBFFD2
:101B20000B0E15C0DBFF1200D9500A0F28EF0EF084
:101B3000F36E070EF3CFDBFF1200EECF14F0EFCF02
:101B400015F01200010EDB2A020E1200FC0EDBCF94
:101B5000E6FFFD0EDBCFE6FF1200145E000E155A05
:101B6000F70E14C0DBFFF80E15C0DBFF14C0E9FF51
:101B700015C0EAFF1200DA20EA6EEF2AEECFF6FF78
:101B8000000EEF22EECFF7FFEF22EECFF8FF1200AC
:101B9000040EDBCFE6FF130EDB50E552E75C9ADF65
:101BA000DB5004DF060EDB501200090EDB500A0D7D
:101BB000F350DF24D00FE76E090EE7CFDBFFC0EF55
:101BC0000CF0DB50F36E050EEEEF0CF0F70EDBCFF2
:101BD00014F0F80EDBCF15F01200DFCFE6FFCAEFEE
:101BE0000CF028DF030EECDE6FEF0DF01CEC08F0BC
:101BF000E552E552E552E55200091200BDDEEE5015
:101C0000EFCFEAFFE96E010E1200130EDB50F36E08
:101C1000040EEEEF0CF0040EDB50F36E090EEEEF47
:101C20000CF0DBCFE6FFCAEF0CF0E76E050EE7CF56
:101C3000DBFF12008BDFEDEF0DF0DBCFE6FF86DF81
:101C4000F6EF0DF0D950F90FE96EFF0EBBEF0DF076
:0A1C5000E96E000EDA20EA6E1200C1
:061C5A000F0EC11295946B
:101C600095969598959A959C959E83948396839E38
:101C7000839C838A8388120EE66E88EC13F0E5520B
:101C80008386060EE66E88EC13F0E5528396060E08
:101C9000E66E88EC13F0E552060EE66E88EC13F063
:101CA000E5528386060EE66E88EC13F0E5528396C5
:101CB000060EE66E88EC13F0E552060EE66E88EC32
:101CC00013F0E5528386060EE66E88EC13F0E552BB
:101CD0008396060EE66E88EC13F0E552839E839C95
:101CE000838A83988386060EE66E88EC13F0E552AD
:101CF0008396060EE66E88EC13F0E552280EE66E2B
:101D00000ED8E552060EE66E0AD8E5520E0EE66EC5
:101D100006D8E552010EE66E02D8E5521200D9CF80
:101D2000E6FFE1CFD9FF83948396FE0EDBA802D0B5
:101D3000838801D08398DBAA02D0838A01D0839A5A
:101D4000DBAC02D0838C01D0839CDBAE02D0838ECF
:101D500001D0839E8386060EE66E88EC13F0E55272
:101D60008396060EE66E88EC13F0E552FE0EDBA0BD
:101D700002D0838801D08398DBA202D0838A01D06D
:101D8000839ADBA402D0838C01D0839CDBA602D093
:101D9000838E01D0839E8386060EE66E88EC13F058
:101DA000E5528396060EE66E88EC13F0E552E55296
:101DB000E7CFD9FF1200D9CFE6FFE1CFD9FF838467
:101DC0008396FE0EDBA802D0838801D08398DBAA1D
:101DD00002D0838A01D0839ADBAC02D0838C01D0FD
:101DE000839CDBAE02D0838E01D0839E8386060E59
:101DF000E66E88EC13F0E5528396060EE66E88ECEC
:101E000013F0E552FE0EDBA002D0838801D0839848
:101E1000DBA202D0838A01D0839ADBA402D0838C18
:101E200001D0839CDBA602D0838E01D0839E838663
:101E3000060EE66E88EC13F0E5528396060EE66E0B
:101E400088EC13F0E552E552E7CFD9FF1200D9CF65
:101E5000E6FFE1CFD9FF83948396838EFE0EDBA845
:101E600002D0838801D08398DBAA02D0838A01D074
:101E7000839ADBAC02D0838C01D0839C8386060ED0
:101E8000E66E88EC13F0E5528396060EE66E88EC5B
:101E900013F0E552FE0EDBA002D0838801D08398B8
:101EA000DBA202D0838A01D0839ADBA402D0838C88
:101EB00001D0839CDBA602D0838E01D0839E8386D3
:101EC000060EE66E88EC13F0E5528396060EE66E7B
:101ED00088EC13F0E552E552E7CFD9FF1200D9CFD5
:101EE000E6FFE1CFD9FFFD0EDBCFE9FFFE0EDBCF32
:101EF000EAFFEF5010E0FD0EDBCFE9FFFE0EDBCF77
:101F0000EAFFEF50E66E57DFE552FD0EDB2AFE0ECC
:101F100001E3DB2AE8D7E552E7CFD9FF1200D9CF9A
:101F2000E6FFE1CFD9FFFD0EDBCFF6FFFE0EDBCFE4
:101F3000F7FF0800F55011E0FD0EDBCFF6FFFE0EB7
:101F4000DBCFF7FF0800F550E66E35DFE552FD0EFA
:101F5000DB2AFE0E01E3DB2AE6D7E552E7CFD9FF05
:101F60001200D9CFE6FFE1CFD9FF070EE126D9CF86
:101F7000E9FFDACFEAFF200EEE6EEE6AEE6AEE6A55
:101F8000EE6AEE6AEE6AD9CFE6FFDACFE6FFFD0E23
:101F9000DBCFE6FFFE0EDBCFE6FF13EC11F0E552E0
:101FA000E552E552E552D9CFE6FFDACFE6FF97DFFB
:101FB000E552E552070EE15C02E2E16AE552E16EAC
:081FC000E552E7CFD9FF120042
:081FC800DACFE4FFE2CFDAFFFB
:101FD000E9CFE4FFEACFE4FFF6CFE4FFF7CFE4FF79
:101FE000F5CFE4FFF3CFE4FFF4CFE4FFFACFE4FF53
:101FF00000EE00F0140EE80403E3EECFE4FFFBD79D
:1020000000EE14F0070EE80403E3EECFE4FFFBD785
:10201000E652F250200B44E0F250040B41E0000184
:10202000713504E270510208000E71552DE2837281
:10203000682B000E69236A236B233C0E681905E1A7
:10204000695103E16A5101E16B5109E1686B696B08
:102050006A6B6B6B642B000E6523662367233C0E53
:10206000641905E1655103E1665101E1675109E138
:10207000646B656B666B676B602B000E612362237C
:102080006323706B716B03D0702B000E7123E50E10
:10209000E66E480EE66E50EC13F0E552E552F2940F
:1020A000E55200EE1AF0070EE80403E3E5CFEDFF7A
:1020B000FBD700EE13F0140EE80403E3E5CFEDFFC9
:1020C000FBD7E5CFFAFFE5CFF4FFE5CFF3FFE5CF90
:1020D000F5FFE5CFF7FFE5CFF6FFE5CFEAFFE5CF68
:1020E000E9FFE5CFDAFF1100D8CFE4FFE0CFE4FF4E
:1020F000E46EDACFE4FFE2CFDAFFE652E552E5CF55
:10210000DAFFE550E5CFE0FFE5CFD8FF1000D9CFEB
:10211000E6FFE1CFD9FF110EE1269368956A0F0E15
:10212000C1122DEC0EF08392D08EF28EF294F184D7
:10213000E50EE66E480EE66E50EC13F0E552E55201
:10214000950EE66E6CEC13F0E55284A213D00001FC
:10215000602B000E612362236323180E601905E1D2
:10216000615103E1625101E1635104E1606B616B14
:10217000626B636B84A413D00001642B000E652393
:10218000662367233C0E641905E1655103E166513E
:1021900001E1675104E1646B656B666B676B68C056
:1021A000E6FF69C0E6FF6AC0E6FF6BC0E6FF64C0F9
:1021B000E6FF65C0E6FF66C0E6FF67C0E6FF60C0F9
:1021C000E6FF61C0E6FF62C0E6FF63C0E6FFBA0E4D
:1021D000146E270E156E166A14C0E6FF15C0E6FFD2
:1021E00016C0E6FFD9CFE6FFDACFE6FFADEC11F07F
:1021F000176E110EE15E1750E66A27EC0FF0E552FC
:10220000D9CFE6FFDACFE6FF6FEC0FF0E552E552EB
:102210009CD7110EE15C02E2E16AE552E16EE55203
:06222000E7CFD9FF120018
:0A222600D9CFE6FFDACFE6FFFA0E8B
:10223000E3CFD9FFFB0EE3CFDAFFFD0EE35209E750
:102240002D0EDE6EFC0EE31EE32AFD0ED8B4E3066F
:10225000E31EE652E652E652FD0EE124E76EFF0E63
:10226000E220E46EE652F70EE3CFE6FFF70EE3CF8F
:10227000E6FF83EC11F0F90EE124E96EFF0EE22097
:10228000EA6E73EC11F00AE170EC11F009E173EC05
:1022900011F008E170EC11F007E108D07EEC11F0CC
:1022A00079EC11F07EEC11F079EC11F07EEC11F08C
:1022B000DE6AF90EE126FF0EE222FF0EE3CFDAFF1F
:1022C000E552FF0EE3CFD9FFE552FC0EE124E96EA3
:1022D000FF0EE220EA6EEECFF3FFEFCFF4FF120025
:1022E000EF380F0B1200EF500F0B02E1EE52D884C3
:1022F0001200EF380F0B300FDE6E1200EE500F0B96
:10230000300FDE6E1200FC0EE3CFE9FFFD0EE3CFCF
:10231000EAFF100EE66EEE6AEE6AEF6AD890FD0EE6
:10232000E336FE0EE336ED36ED36EF36FF0EE3060E
:1023300009E0A4EC11F0EE52A4EC11F0EE52A4EC82
:1023400011F0EDD7E56E1200030EEF24E8B6EF6E44
:0A235000300EEF24E8BEEF6E000C23
:06235A00D9CFE6FFDACF47
:10236000E6FFE1CFD9FFE2CFDAFFE652E652E652CE
:10237000E652D950F90F146EFF0EDA20156E020ED8
:1023800014C0DBFF030E15C0DBFF020EDBCFE6FF40
:10239000030EDBCFE6FFF90EDBCFE6FFFA0EDBCF55
:1023A000E6FFFB0EDBCFE6FFD950FC0FE66EFF0E1B
:1023B000DA20E66E32EC08F0146E070EE15C02E201
:1023C000E16AE552E16E1450F3CFDEFFF4CFDDFF9A
:1023D000FC0EDBCFE9FFFD0EDBCFEAFFEF6ADECFBD
:1023E00014F0DDCF15F014C0F3FF15C0F4FF040E98
:1023F000E15C02E2E16AE552E16EE552E5CFDAFF27
:06240000E7CFD9FF120036
:0A2406002A0EF66E100EF76E000E9F
:10241000F86E00010900F550776F0900F550786FEC
:1024200003E1776701D03DD00900F550726F0900D4
:10243000F550736F0900F550746F09000900F550ED
:10244000E96E0900F550EA6E090009000900F5502F
:10245000756F0900F550766F09000900F6CF79F025
:10246000F7CF7AF0F8CF7BF072C0F6FF73C0F7FFBA
:1024700074C0F8FF0001755302E1765307E00900CC
:10248000F550EE6E7507F8E27607F9D779C0F6FFDA
:102490007AC0F7FF7BC0F8FF00017707000E785B7A
:0424A000BFD7120090
:0C24A400D9CFE6FFDACFE6FFE1CFD9FF89
:1024B000E2CFDAFFFB0EDBCF14F0FC0EDBCF15F022
:1024C0000001800E15141AE1FB0EDBCFE9FFFC0EB4
:1024D000DBCFEAFFEECFF3FFEDCFF4FFEE2A000EE5
:1024E000EF22F3CFE9FFF4CFEAFFFD0EDBCFEFFFE2
:1024F000EF50156AF36E15C0F4FF10D0FB0EDB50E1
:10250000FE0806E1FD0EDBCFE6FFCFEC13F005D0B1
:10251000FD0EDBCFE6FFEEEC13F0E552E552E5CF22
:08252000DAFFE7CFD9FF12003A
:0825280006500B02F3CF02F094
:10253000F4CF03F00C02F3500326000EF420046ED7
:1025400006500D02F3500426000EF420056E0650CE
:102550000E02F350052607500B02F3500326F450E9
:102560000422000E052207500C02F3500426F450FA
:10257000052207500D02F350052608500B02F350B8
:102580000426F450052208500C02F3500526095089
:082590000B02F35005261200B6
:08259800FE0EE3CFE9FFFF0E88
:1025A000E3CFEAFFF36AF46AEE5203E0F34AF42A57
:1025B000FBD71200FF0EE3CFF8FFE552FF0EE3CF8B
:1025C000F7FFE552FF0EE3CFF6FFE552E66AE66A53
:1025D000E66A0900F55209E0FD0EE32A05E1FE0E68
:1025E000E32A02E1FF0EE32AF4D7FD0EE3CF07F062
:0E25F000FE0EE3CF08F0FF0EE3CF09F012005D
:0225FE0009C012
:1026000013F008C012F008500D02F4CF07F0F3CF1A
:1026100006F009500E02F4CF09F0F3CF08F00D02D6
:10262000F3500726F4500822E86A092212500E02DD
:10263000F3500726F4500822E86A09220EAE25EF6F
:1026400013F01250085E1350095A13AE000C0D50CF
:08265000085E0E50095A000C4F
:08265800056A046A036A026AC4
:10266000200EE76ED8900636073608360936023651
:102670000336043605360B50025C0C5003580D50DF
:1026800004580E50055809E30B50025E0C50035AD3
:102690000D50045A0E50055A062AE72EE4D71200B0
:1026A000D9CFE6FFDACFE6FFE1CFD9FFE2CFDAFFFD
:1026B000E652E652FC0EDBCFDEFFDBCFDDFF010E84
:1026C000DB50D76EDF50D66EE552E552E552E5CFCE
:0826D000DAFFE7CFD9FF120089
:0826D800D9CFE6FFDACFE6FFDF
:1026E000E1CFD9FFE2CFDAFFFD0EDB507F0BD56ED5
:1026F000D76AD66AF294FD0EDBAE02D0F28A01D020
:10270000F29AD58EE552E5CFDAFFE7CFD9FF120076
:10271000FF0EE3501C6EEF0E01D0F30EE76EE72EB6
:102720008FEF13F00C0E1B6EE76AE72E95EF13F098
:0E2730001B2E94EF13F01C2E8DEF13F01200F1
:02273E00F36A3C
:10274000F46AFF0EE124E96EFF0EE220EA6EED6608
:1027500007D02F0EEF6404D03A0EEF6001D0F32AB9
:02276000120065
:0E276200000EF36E00EE00F0080E01D812001B
:10277000EA6002D0EE6AFCD7F350E9601200EE6A1C
:02278000FCD784
:0E27820013EE00F023EE00F0F86A019C03EC69
:0E27900012F0EFEC13F087EC10F0FBD7120004
:02279E00FF0E2C
:1027A000E350ACBA04D0AF6AAB8EAC8A949CACA2B6
:0A27B000FED7AD6EF36EF46A12005E
:0627BA0025326C69203A93
:0B27C00025326C69203A25326C69005C
:0527CB0030313233340F
:0C27D00035363738396162636465660095
:0227DC001200E9
:0227DE001200E7
:1027E00000000000000000000000000001000000E8
:0227F0000000E7
:020000040030CA
:01000100CB33
:010003001EDE
:010005008773
:0100060021D8
:00000001FF
