:020000040000FA
:060000004BEF0DF01200B1
:061000004BEF0DF01200A1
:02102A000000C4
:04102C000F0EC112D0
:10103000959495969598959A959C959E839483966C
:10104000839E839C838A8388120EE66E0EEC0DF0DD
:10105000E5528386060EE66E0EEC0DF0E5528396A1
:10106000060EE66E0EEC0DF0E552060EE66E0EEC88
:101070000DF0E5528386060EE66E0EEC0DF0E5529D
:101080008396060EE66E0EEC0DF0E552060EE66E49
:101090000EEC0DF0E5528386060EE66E0EEC0DF0BA
:1010A000E5528396060EE66E0EEC0DF0E552839E39
:1010B000839C838A83988386060EE66E0EEC0DF081
:1010C000E5528396060EE66E0EEC0DF0E552280E04
:1010D000E66E0ED8E552060EE66E0AD8E5520E0E02
:1010E000E66E06D8E552010EE66E02D8E552120011
:1010F000D9CFE6FFE1CFD9FF83948396FE0EDBA81C
:1011000002D0838801D08398DBAA02D0838A01D0E1
:10111000839ADBAC02D0838C01D0839CDBAE02D0FF
:10112000838E01D0839E8386060EE66E0EEC0DF054
:10113000E5528396060EE66E0EEC0DF0E552FE0EBD
:10114000DBA002D0838801D08398DBA202D0838AFF
:1011500001D0839ADBA402D0838C01D0839CDBA6D0
:1011600002D0838E01D0839E8386060EE66E0EEC3F
:101170000DF0E5528396060EE66E0EEC0DF0E5528C
:10118000E552E7CFD9FF1200D9CFE6FFE1CFD9FF73
:1011900083848396FE0EDBA802D0838801D08398D7
:1011A000DBAA02D0838A01D0839ADBAC02D0838C85
:1011B00001D0839CDBAE02D0838E01D0839E8386D8
:1011C000060EE66E0EEC0DF0E5528396060EE66E08
:1011D0000EEC0DF0E552FE0EDBA002D0838801D0AC
:1011E0008398DBA202D0838A01D0839ADBA402D049
:1011F000838C01D0839CDBA602D0838E01D0839E9A
:101200008386060EE66E0EEC0DF0E5528396060E12
:10121000E66E0EEC0DF0E552E552E7CFD9FF120075
:10122000D9CFE6FFE1CFD9FF83948396838EFE0E5C
:10123000DBA802D0838801D08398DBAA02D0838AFE
:1012400001D0839ADBAC02D0838C01D0839C83864F
:10125000060EE66E0EEC0DF0E5528396060EE66E77
:101260000EEC0DF0E552FE0EDBA002D0838801D01B
:101270008398DBA202D0838A01D0839ADBA402D0B8
:10128000838C01D0839CDBA602D0838E01D0839E09
:101290008386060EE66E0EEC0DF0E5528396060E82
:1012A000E66E0EEC0DF0E552E552E7CFD9FF1200E5
:1012B000D9CFE6FFE1CFD9FFFD0EDBCFE9FFFE0E70
:1012C000DBCFEAFFEF5010E0FD0EDBCFE9FFFE0EB3
:1012D000DBCFEAFFEF50E66E57DFE552FD0EDB2A6B
:1012E000FE0E01E3DB2AE8D7E552E7CFD9FF120073
:1012F000D9CFE6FFE1CFD9FFFD0EDBCFF6FFFE0E23
:10130000DBCFF7FF0800F55011E0FD0EDBCFF6FF55
:10131000FE0EDBCFF7FF0800F550E66E35DFE55235
:10132000FD0EDB2AFE0E01E3DB2AE6D7E552E7CF0E
:10133000D9FF1200D9CFE6FFE1CFD9FF070EE12692
:10134000D9CFE9FFDACFEAFF200EEE6EEE6AEE6A41
:10135000EE6AEE6AEE6AEE6AD9CFE6FFDACFE6FF12
:10136000FD0EDBCFE6FFFE0EDBCFE6FFD5EC0BF08C
:10137000E552E552E552E552D9CFE6FFDACFE6FF76
:1013800097DFE552E552070EE15C02E2E16AE552C1
:0A139000E16EE552E7CFD9FF12002D
:06139A00019E08D0019E37
:1013A00009AE05D0086C091EE86A0922018E09C041
:1013B00003F008C002F0136A126A8E0E046E056A0A
:1013C00077EF0AF0016AB3EC0AF0CBEC0AF001B651
:1013D0005BEF0AF001A205D001BA5BEF0AF062EF01
:1013E0000AF001BA6EEF0AF001A005D001B85BEF78
:1013F0000AF06EEF0AF001B862EF0AF0056A7F0E9C
:101400000A24046EE86A05220F50045EE86A055A51
:101410001A0E106E0A6A126A136A026A036A0C5084
:10142000075E0D50085A0E50095A000E0A5A09E775
:101430000C5007260D5008220E500922000E0A22D9
:1014400001D0128AD8900736083609360A36D89065
:101450001236133602360336102EE1D70950081023
:101460000710D8A4128A77EF0AF0006A0EAE3EEF9A
:101470000AF00D6C0E1EE86A0E22001E09AE46EF41
:101480000AF0086C091EE86A0922001E25EC0DF01E
:1014900009BE56EF0AF000AE000C086C091EE86A9F
:1014A0000922046C051EE86A0522000C00BE4DEFFF
:1014B0000AF00188FF0C7F0E0A6EFF0E096E086E9F
:1014C000076E12007F0E01BEFF0E0A6E02D07F0E65
:1014D0000A6E800E096E086A076AF3D701AE04D05F
:1014E000800E0A6E096AF7D70A6A096AF4D70350B0
:1014F000021013101210F8E005BEF0D703BE0CD096
:1015000004500510EBE0D89012361336023603363D
:101510000406D8A00506F2D70550D4E10428D2E08D
:1015200012AE11D07F0E121402E113A00CD0132AB8
:10153000E86A0222032207E3D88003320232133220
:10154000042A0428BFE00450C9E013C007F002C019
:1015500008F00334096E04300A6E09320A9E01BE97
:101560000A8E61EF0AF009360A3602E30184017E31
:1015700006E101800A6A096A086A076A12000A28F5
:1015800003E0D88009321200D890093202E10182CA
:101590001200018612000E360F3602E3018C017E26
:1015A00006E101880F6A0E6A0D6A0C6A12000F28A4
:1015B00003E0D8800E321200D8900E32EAE1018AA0
:0215C000120017
:0E15C200D9CFE6FFE1CFD9FF1D0EE126580E6E
:1015D000F36E190EF3CFDBFF020EF36E1A0EF3CF8C
:1015E000DBFFF36E1B0EF3CFDBFF1C0EDB6A926892
:1015F000956A9668946AF70EE66E2C0EE66EE30E18
:10160000E66EBEEC0CF0E552E552E55216EC08F041
:10161000829282908392E66A10EC09F0E5520A0EFB
:10162000E66E1A0EE66E78EC09F0E552E552400ED1
:10163000E66E10EC09F0E552FB0EE66E190EE66E52
:1016400078EC09F0E552E552110EDB6A120EDB6A06
:10165000110EDBCF14F0120EDBCF15F0D890155021
:1016600004E60A0E145C000E15580BE2780EE66EC6
:101670000EEC0DF0E552110EDB2A120E01E3DB2A0F
:10168000E7D7E66A10EC09F0E552EA0EE66E190EAD
:10169000E66E78EC09F0E552E552400EE66E10EC8D
:1016A00009F0E552EA0EE66E190EE66E78EC09F0E6
:1016B000E552E55272EC0DF06DEC0DF0000901E021
:1016C000FBD764EC0DF0130EF3CFDBFF140EF4CF59
:1016D000DBFF130EDBCF08F0140EDBCF09F0CFECED
:1016E00009F007C014F008C015F009C016F00AC0D0
:1016F00017F0EC0E0C6E510E0D6EB80E0E6E400E05
:101700000F6E14C007F015C008F016C009F017C01E
:101710000AF0E2EC09F0150E07C0DBFF160E08C058
:10172000DBFF170E09C0DBFF180E0AC0DBFF838248
:10173000060E146E156A130EDBCF08F0140EDBCF05
:1017400009F014C00DF015C00EF035EC0AF0085089
:10175000E66E59EC0DF0E5528392130EDBCF14F0D8
:10176000140EDBCF15F0080E0D6E0E6A14C008F0D3
:1017700015C009F035EC0AF008C014F009C015F0E6
:10178000880ED8801456130E15561450E66E59EC78
:101790000DF0E5528FD71D0EE15C02E2E16AE552E1
:0A17A000E16EE552E7CFD9FF120019
:0617AA00D9CFE6FFDACF03
:1017B000E6FFFA0EE3CFD9FFFB0EE3CFDAFFFD0E13
:1017C000E35209E72D0EDE6EFC0EE31EE32AFD0E4A
:1017D000D8B4E306E31EE652E652E652FD0EE124DB
:1017E000E76EFF0EE220E46EE652F70EE3CFE6FF6F
:1017F000F70EE3CFE6FF45EC0CF0F90EE124E96EBD
:10180000FF0EE220EA6E35EC0CF00AE132EC0CF04F
:1018100009E135EC0CF008E132EC0CF007E108D0FE
:1018200040EC0CF03BEC0CF040EC0CF03BEC0CF022
:1018300040EC0CF0DE6AF90EE126FF0EE222FF0E0C
:10184000E3CFDAFFE552FF0EE3CFD9FFE552FC0EFE
:10185000E124E96EFF0EE220EA6EEECFF3FFEFCF58
:10186000F4FF1200EF380F0B1200EF500F0B02E1E4
:10187000EE52D8841200EF380F0B300FDE6E1200DC
:10188000EE500F0B300FDE6E1200FC0EE3CFE9FFBF
:10189000FD0EE3CFEAFF100EE66EEE6AEE6AEF6A27
:1018A000D890FD0EE336FE0EE336ED36ED36EF361C
:1018B000FF0EE30609E066EC0CF0EE5266EC0CF06D
:1018C000EE5266EC0CF0EDD7E56E1200030EEF243D
:0E18D000E8B6EF6E300EEF24E8BEEF6E000CAF
:0218DE002A0ED0
:1018E000F66E100EF76E000EF86E00010900F5504E
:1018F000656F0900F550666F03E1656701D03DD063
:101900000900F550606F0900F550616F0900F5504E
:10191000626F09000900F550E96E0900F550EA6EA2
:10192000090009000900F550636F0900F550646F64
:1019300009000900F6CF67F0F7CF68F0F8CF69F03B
:1019400060C0F6FF61C0F7FF62C0F8FF000163539B
:1019500002E1645307E00900F550EE6E6307F8E218
:101960006407F9D767C0F6FF68C0F7FF69C0F8FFE2
:0C19700000016507000E665BBFD7120087
:04197C00D9CFE6FFDA
:10198000DACFE6FFE1CFD9FFE2CFDAFFC26AC06A61
:10199000FC0EDB407F0B3C0BC26EFC0EDB38F00B09
:1019A000300B146EFB0EDB500F0B1410C16EFD0ECE
:1019B000DB50040DF350380B156EFD0EDB380F0BAA
:1019C000070B146EFD0EDB50800B14101510C06E4B
:1019D000FC0EDBAE03D09E9C9D8CF28CC280E55247
:0A19E000E5CFDAFFE7CFD9FF1200D0
:0619EA0020202020202037
:1019F0002020202020202020202000202054656D41
:101A0000706572617475726120002020436F6E767C
:0B1A1000657273616F20412F442000BD
:041A1C00FF0EE35086
:101A2000196EEF0E01D0F30EE76EE72E15EF0DF0F5
:101A30000C0E186EE76AE72E1BEF0DF0182E1AEF4A
:0A1A40000DF0192E13EF0DF0120047
:061A4A00056A046A100E9B
:101A5000E76ED89008360936043605360D50045C1A
:101A60000E50055805E30D50045E0E50055A082A25
:061A7000E72EF0D7120082
:0A1A7600000EF36E00EE00F0080E03
:101A800001D81200EA6002D0EE6AFCD7F350E96098
:061A90001200EE6AFCD713
:0A1A960013EE00F023EE00F0F86AF2
:101AA000019C6FEC0CF074EC0DF0E1EC0AF0FBD74C
:021AB000120022
:0E1AB200FF0EE350E84E1200000000D000D0FE
:081AC00000D0E82EFAD7120055
:081AC800C450176E166AC350EA
:0A1AD0001610F36E17C0F4FF1200A9
:061ADA00C250020B01E006
:041AE000010E1200E1
:041AE400C2821200A8
:021AE8001200EA
:020000040030CA
:01000100CB33
:010003001EDE
:010005008773
:0100060021D8
:00000001FF
